{
  "contractName": "Token",
  "abi": [
    {
      "inputs": [
        {
          "internalType": "string",
          "name": "_name",
          "type": "string"
        },
        {
          "internalType": "string",
          "name": "_symbol",
          "type": "string"
        },
        {
          "internalType": "uint256",
          "name": "_decimals",
          "type": "uint256"
        },
        {
          "internalType": "uint256",
          "name": "_totalSupply",
          "type": "uint256"
        }
      ],
      "stateMutability": "nonpayable",
      "type": "constructor"
    },
    {
      "anonymous": false,
      "inputs": [
        {
          "indexed": true,
          "internalType": "address",
          "name": "from",
          "type": "address"
        },
        {
          "indexed": true,
          "internalType": "address",
          "name": "to",
          "type": "address"
        },
        {
          "indexed": false,
          "internalType": "uint256",
          "name": "value",
          "type": "uint256"
        }
      ],
      "name": "transfer",
      "type": "event"
    },
    {
      "inputs": [
        {
          "internalType": "address",
          "name": "",
          "type": "address"
        }
      ],
      "name": "balanceOf",
      "outputs": [
        {
          "internalType": "uint256",
          "name": "",
          "type": "uint256"
        }
      ],
      "stateMutability": "view",
      "type": "function"
    },
    {
      "inputs": [],
      "name": "decimals",
      "outputs": [
        {
          "internalType": "uint256",
          "name": "",
          "type": "uint256"
        }
      ],
      "stateMutability": "view",
      "type": "function"
    },
    {
      "inputs": [],
      "name": "name",
      "outputs": [
        {
          "internalType": "string",
          "name": "",
          "type": "string"
        }
      ],
      "stateMutability": "view",
      "type": "function"
    },
    {
      "inputs": [],
      "name": "symbol",
      "outputs": [
        {
          "internalType": "string",
          "name": "",
          "type": "string"
        }
      ],
      "stateMutability": "view",
      "type": "function"
    },
    {
      "inputs": [],
      "name": "totalSupply",
      "outputs": [
        {
          "internalType": "uint256",
          "name": "",
          "type": "uint256"
        }
      ],
      "stateMutability": "view",
      "type": "function"
    },
    {
      "inputs": [
        {
          "internalType": "address",
          "name": "_to",
          "type": "address"
        },
        {
          "internalType": "uint256",
          "name": "_value",
          "type": "uint256"
        }
      ],
      "name": "transferToken",
      "outputs": [
        {
          "internalType": "bool",
          "name": "success",
          "type": "bool"
        }
      ],
      "stateMutability": "nonpayable",
      "type": "function"
    }
  ],
  "bytecode": "0x60806040523480156200001157600080fd5b5060405162000cdf38038062000cdf83398181016040528101906200003791906200034f565b83600090805190602001906200004f929190620000c7565b50826001908051906020019062000068929190620000c7565b508160028190555080600381905550600354600460003373ffffffffffffffffffffffffffffffffffffffff1673ffffffffffffffffffffffffffffffffffffffff168152602001908152602001600020819055505050505062000464565b828054620000d5906200042e565b90600052602060002090601f016020900481019282620000f9576000855562000145565b82601f106200011457805160ff191683800117855562000145565b8280016001018555821562000145579182015b828111156200014457825182559160200191906001019062000127565b5b50905062000154919062000158565b5090565b5b808211156200017357600081600090555060010162000159565b5090565b6000604051905090565b600080fd5b600080fd5b600080fd5b600080fd5b6000601f19601f8301169050919050565b7f4e487b7100000000000000000000000000000000000000000000000000000000600052604160045260246000fd5b620001e08262000195565b810181811067ffffffffffffffff82111715620002025762000201620001a6565b5b80604052505050565b60006200021762000177565b9050620002258282620001d5565b919050565b600067ffffffffffffffff821115620002485762000247620001a6565b5b620002538262000195565b9050602081019050919050565b60005b838110156200028057808201518184015260208101905062000263565b8381111562000290576000848401525b50505050565b6000620002ad620002a7846200022a565b6200020b565b905082815260208101848484011115620002cc57620002cb62000190565b5b620002d984828562000260565b509392505050565b600082601f830112620002f957620002f86200018b565b5b81516200030b84826020860162000296565b91505092915050565b6000819050919050565b620003298162000314565b81146200033557600080fd5b50565b60008151905062000349816200031e565b92915050565b600080600080608085870312156200036c576200036b62000181565b5b600085015167ffffffffffffffff8111156200038d576200038c62000186565b5b6200039b87828801620002e1565b945050602085015167ffffffffffffffff811115620003bf57620003be62000186565b5b620003cd87828801620002e1565b9350506040620003e08782880162000338565b9250506060620003f38782880162000338565b91505092959194509250565b7f4e487b7100000000000000000000000000000000000000000000000000000000600052602260045260246000fd5b600060028204905060018216806200044757607f821691505b602082108114156200045e576200045d620003ff565b5b50919050565b61086b80620004746000396000f3fe608060405234801561001057600080fd5b50600436106100625760003560e01c806306fdde03146100675780631072cbea1461008557806318160ddd146100b5578063313ce567146100d357806370a08231146100f157806395d89b4114610121575b600080fd5b61006f61013f565b60405161007c9190610527565b60405180910390f35b61009f600480360381019061009a91906105e2565b6101cd565b6040516100ac919061063d565b60405180910390f35b6100bd6103dc565b6040516100ca9190610667565b60405180910390f35b6100db6103e2565b6040516100e89190610667565b60405180910390f35b61010b60048036038101906101069190610682565b6103e8565b6040516101189190610667565b60405180910390f35b610129610400565b6040516101369190610527565b60405180910390f35b6000805461014c906106de565b80601f0160208091040260200160405190810160405280929190818152602001828054610178906106de565b80156101c55780601f1061019a576101008083540402835291602001916101c5565b820191906000526020600020905b8154815290600101906020018083116101a857829003601f168201915b505050505081565b600081600460003373ffffffffffffffffffffffffffffffffffffffff1673ffffffffffffffffffffffffffffffffffffffff168152602001908152602001600020541015610251576040517f08c379a00000000000000000000000000000000000000000000000000000000081526004016102489061075c565b60405180910390fd5b81600460003373ffffffffffffffffffffffffffffffffffffffff1673ffffffffffffffffffffffffffffffffffffffff1681526020019081526020016000205461029c91906107ab565b600460003373ffffffffffffffffffffffffffffffffffffffff1673ffffffffffffffffffffffffffffffffffffffff1681526020019081526020016000208190555081600460008573ffffffffffffffffffffffffffffffffffffffff1673ffffffffffffffffffffffffffffffffffffffff1681526020019081526020016000205461032a91906107df565b600460008573ffffffffffffffffffffffffffffffffffffffff1673ffffffffffffffffffffffffffffffffffffffff168152602001908152602001600020819055508273ffffffffffffffffffffffffffffffffffffffff163373ffffffffffffffffffffffffffffffffffffffff167fbeabacc8ffedac16e9a60acdb2ca743d80c2ebb44977a93fa8e483c74d2b35a8846040516103ca9190610667565b60405180910390a36001905092915050565b60035481565b60025481565b60046020528060005260406000206000915090505481565b6001805461040d906106de565b80601f0160208091040260200160405190810160405280929190818152602001828054610439906106de565b80156104865780601f1061045b57610100808354040283529160200191610486565b820191906000526020600020905b81548152906001019060200180831161046957829003601f168201915b505050505081565b600081519050919050565b600082825260208201905092915050565b60005b838110156104c85780820151818401526020810190506104ad565b838111156104d7576000848401525b50505050565b6000601f19601f8301169050919050565b60006104f98261048e565b6105038185610499565b93506105138185602086016104aa565b61051c816104dd565b840191505092915050565b6000602082019050818103600083015261054181846104ee565b905092915050565b600080fd5b600073ffffffffffffffffffffffffffffffffffffffff82169050919050565b60006105798261054e565b9050919050565b6105898161056e565b811461059457600080fd5b50565b6000813590506105a681610580565b92915050565b6000819050919050565b6105bf816105ac565b81146105ca57600080fd5b50565b6000813590506105dc816105b6565b92915050565b600080604083850312156105f9576105f8610549565b5b600061060785828601610597565b9250506020610618858286016105cd565b9150509250929050565b60008115159050919050565b61063781610622565b82525050565b6000602082019050610652600083018461062e565b92915050565b610661816105ac565b82525050565b600060208201905061067c6000830184610658565b92915050565b60006020828403121561069857610697610549565b5b60006106a684828501610597565b91505092915050565b7f4e487b7100000000000000000000000000000000000000000000000000000000600052602260045260246000fd5b600060028204905060018216806106f657607f821691505b6020821081141561070a576107096106af565b5b50919050565b7f4e6f20656e6f7567682062616c616e6365000000000000000000000000000000600082015250565b6000610746601183610499565b915061075182610710565b602082019050919050565b6000602082019050818103600083015261077581610739565b9050919050565b7f4e487b7100000000000000000000000000000000000000000000000000000000600052601160045260246000fd5b60006107b6826105ac565b91506107c1836105ac565b9250828210156107d4576107d361077c565b5b828203905092915050565b60006107ea826105ac565b91506107f5836105ac565b9250827fffffffffffffffffffffffffffffffffffffffffffffffffffffffffffffffff0382111561082a5761082961077c565b5b82820190509291505056fea2646970667358221220692b881c8557c6db06422760a8c46999a728edaf0da0da1fc593922f78cc853964736f6c634300080b0033",
  "immutableReferences": {},
  "source": "// SPDX-License-Identifier: MIT\r\npragma solidity ^0.8.6;\r\n\r\ncontract Token {\r\n    string public name;\r\n    string public symbol;\r\n    uint256 public decimals;\r\n    uint256 public totalSupply; //= 1000000000000000000000000; // 1 6(0) 18(0)\r\n\r\n    mapping(address => uint256) public balanceOf;\r\n    event transfer(address indexed from, address indexed to, uint256 value);\r\n\r\n    constructor(\r\n        string memory _name,\r\n        string memory _symbol,\r\n        uint256 _decimals,\r\n        uint256 _totalSupply\r\n    ) {\r\n        name = _name;\r\n        symbol = _symbol;\r\n        decimals = _decimals;\r\n        totalSupply = _totalSupply;\r\n        balanceOf[msg.sender] = totalSupply;\r\n    }\r\n\r\n    function transferToken(address _to, uint256 _value)\r\n        external\r\n        returns (bool success)\r\n    {\r\n        require(balanceOf[msg.sender] >= _value, \"No enough balance\");\r\n        balanceOf[msg.sender] = balanceOf[msg.sender] - (_value);\r\n        balanceOf[_to] = balanceOf[_to] + (_value);\r\n        emit transfer(msg.sender, _to, _value);\r\n        return true;\r\n    }\r\n}\r\n",
  "sourcePath": "D:\\Work\\Blockchain\\me\\token\\contracts\\Token.sol",
  "compiler": {
    "name": "solc",
    "version": "0.8.11+commit.d7f03943.Emscripten.clang"
  },
  "schemaVersion": "3.4.3",
  "updatedAt": "2021-12-23T18:23:31.142Z",
  "devdoc": {
    "kind": "dev",
    "methods": {},
    "version": 1
  },
  "userdoc": {
    "kind": "user",
    "methods": {},
    "version": 1
  }
}